:020000040000FA
:060000007AEF14F012007B
:020006001200E6
:0800080057EF0EF01200140E78
:10001000E66EA4EC14F0E55212000F0E4EEF04F061
:10002000050E4EEF04F02B0EE66EE9EC10F0E552F3
:10003000E5DBFEE12B0E5DEC04F0E0DBFEE10F0EF4
:100040005DEC04F0DBDBFEE1010E5DEC04F0D6DBE1
:10005000FEE112008BEC04F00AE1ED5008E162ECE5
:1000600004F0CCDBFEE1A9DBC9DB37E0FDD791EC86
:1000700004F0020EEE180BE1ED5009E1400E30ECF9
:1000800004F0BCDBFEE199DBB9DB27E0FDD791ECA6
:1000900004F0030EEE180AE1ED5008E1100EE0DB6B
:1000A000ADDBFEE18ADBAADB18E0FDD791EC04F0C2
:1000B000040EEE180AE1ED5008E1500ED1DB9EDB94
:1000C000FEE17BDB9BDB09E0FDD762EC04F096DB15
:1000D000FEE173EC04F092DBFEE182EF04F08BECC6
:1000E00004F00AE1ED5008E162EC04F087DBFEE188
:1000F0007ADB84DB34E0FDD791EC04F0020EEE18DD
:100100000AE1ED5008E1400EABDB78DBFEE16BDB92
:1001100075DB25E0FDD791EC04F0030EEE180AE143
:10012000ED5008E1100E9CDB69DBFEE15CDB66DB79
:1001300016E0FDD791EC04F0040EEE180AE1ED5044
:1001400008E1500E8DDB5ADBFEE14DDB57DB07E0AB
:10015000FDD7B8DB53DBFEE1C6DB50DBFEE1D2D3DB
:10016000826A8B6AF40E946E92909292938093922C
:1001700093849398939A9396836A956A1200F28A6D
:10018000F294F184CF6ACE6A810ECD6E930EE66E44
:10019000E4EC13F0E5521200F288F292F18C9D84A7
:1001A000D08EF28EF28EF28C9E6AD08E050EBD6ECF
:1001B000040E9F6E12009396050EE66E00EC14F08E
:1001C000E5521E0E47EF04F02DDB020EE126DF6A3A
:1001D000DE52010EDD6EDBCF23F0100EE76E23182A
:1001E000E8AE02D0E73402D0E750235C3EE2010ED5
:1001F000DB50010BE8B08B80E8A08B90010EDB5048
:10020000020BE8407F0BE8B08B82E8A08B92010ED6
:10021000DB50040BE840E8403F0BE8B08C86E8A0D8
:100220008C96010EDB50080BE840E840E8401F0BBD
:10023000E8B08B86E8A08B96F60EE66E96EC14F08E
:10024000E55282B812D0DF2A82BA0FD0DF2A82BCF0
:100250000CD0DF2A82BE09D0DF2A010EDBCFF3FFEC
:10026000F39EF346F3CFDBFFB6D78B908B928C9641
:100270008B9601010151DF5C12E0DFCF01F1DFCF8E
:10028000E9FFEA6AE9BEEA68A80EE926000EEA225A
:10029000EFCF23F0246A23AE07D0246805D0B8C07E
:1002A00023F0246A23BE24683FDB02E2E16AE552C0
:1002B000B7D241DB060E086E096ABBC00DF0BCC0A8
:1002C0000EF032EC0CF006C0DEFF07C0DDFFD9DA1D
:1002D00002E2E16AE552A4D22EDBD7C007F0D8C013
:1002E00008F0D9C009F0DAC00AF0A8EC0CF008C098
:1002F000DEFF09C0DDFFC5DA02E2E16AE55290D215
:1003000091DA500EE126010102A505D0A2DAE50E30
:10031000236E220E04D09DDADA0E236E220E5BDAF3
:1003200094DA010E75DA500EE15C02E2E16AE55200
:1003300077D278DA100EE126010102A305D089DA1E
:10034000CF0E236E220E04D084DAC60E236E220E48
:1003500042DA7BDA020E5CDA100EE15C02E2E16A5C
:10036000E5525ED25FDA2A0EE126010EF36E280E08
:10037000F3CFDBFF290EDB6A010102A111D057DAAE
:1003800047DA280EDBCFE6FF290EDBCFE6FFBD0EF6
:10039000236E220E20DAA0DAD4DA9EDA040E01D01F
:1003A00046DA36DA2A0EE15C02E2E16AE55238D238
:1003B0000001C16BC26BC36BC46BC56BC66BC76BF3
:1003C000C86BC96BCA6BCB6BCC6BCD6BCE6BCF6B79
:1003D000D06BD16BD26BD36BD46BD56BD66BB96B47
:1003E000BA6BBB6BBC6BBD6BBE6BBF6BC06BDC6BAE
:1003F000DD6BDE6BDF6BE06BE16BE26BE36BE46BA1
:10040000E56BE66BE76BE86BE96BEA6BEB6B120095
:1004100009DA49DA800EE926000EEA22EF50E66E8C
:10042000C2EC11F0E5523FDA940EE926000EEA2202
:10043000EECF23F0EFCF24F0900E086E010E096E80
:1004400023C00DF024C00EF032EC0CF0065026DA7A
:10045000010EE66EC2EC11F0E552060EE66E1BECE4
:1004600014F0E5524FD2BBEC0DF0CC0E30DA440E56
:100470002EDA8182010E0001EA6FEB6BEB3504E2AC
:10048000EA510808000EEB5507E3640E07DA000195
:10049000EA2B000EEB23F2D78192BBEC0DF0CC0ED1
:1004A00016DABE0E14DA0FEC0EF00101046F0FEC39
:1004B0000EF00101036F04390F0B0001DE6FDF6BDB
:1004C00001010339F00B0001DC6FDD6BE850DE1138
:1004D000E06FDD51DF11E16F010104A106D00C6A6C
:1004E0000D6A800E0E6E3D0E5CD9010104A305D08D
:1004F0000C6A0D6A0E6A3E0E54D9010104A506D09D
:100500000C6A0D6A800E0E6E3E0E4BD9010104A7D7
:1005100005D00C6A0D6A0E6A3F0E43D90C6A0D6A4B
:100520007A0E0E6E440EE4D9C5EC0BF0A8EC0CF07C
:1005300008C0E8F009C0E9F001010351E840E840D3
:10054000E8401F0B3F0B0001E66FE76BE850E71137
:1005500005E18BD9AB0E236E220E04D086D9990EFD
:10056000236E220E38D9050EE66E010EE66E44ECBF
:1005700010F0266E0B0EE15E26500001E06BE16B81
:10058000E86BE96BE26BE36BE46BE56B12004AD955
:10059000060EE126DE6ADD6A020EDB6A030EDB6A06
:1005A000040EDB6A050EDB6A03DF05DEE8DDF4DD41
:1005B000010E83D9000E6BD989908992640E6ED991
:1005C0000001BD51BE1105E1BFC0BBF0C0C0BCF011
:1005D00036D0BBEC14F06DDEF3CFDEFFF4CFDDFFE1
:1005E000DECF23F0DDCF24F0243422E22350640850
:1005F000000E24541DE2D950040FE96EDACFEAFF51
:100600000A0EEE1806E1ED5004E1040EDB6A050E59
:10061000DB6AD1DD040EDBCFE6FF050EDBCFE6FFA4
:10062000F7DEE552E552040EDB2A050E01E3DB2A74
:1006300053DE020EF3CFDBFF030EF4CFDBFFDECF82
:10064000E6FFDDCFE6FF5CDEE552E552020EDBCFD2
:10065000E6FF030EDBCFE6FF6CDEE552E55203DF7B
:1006600081DEB2DDFE0EF3CFDBFFDB504108A2E1FD
:10067000000E0DD99D94F298F29EF29E060EE15C5A
:1006800002E2E16AE552CCD0D9CFE6FFE1CFD9FF53
:10069000120EE126100EE66EE66A200EE66ED950C6
:1006A000010FE66E000EDA20E66ED6EC0FF0236E38
:1006B000050EE15E2350110EDB6A52DDB4DC84DDF1
:1006C000F350DF6EFF0EDF5C2BE0DF50450A1EE0CB
:1006D000060A13E0010A08E0030A01E020D0DFCF98
:1006E000E6FF55DFE5521BD0010102A503D0010151
:1006F000029502D00101028512D0010102A303D0AC
:100700000101029302D00101028309D0010102A17B
:1007100003D00101029102D00101028100D035D045
:10072000010EE66E1DEC13F0E552910EE66E220E00
:10073000E66E010EE66EE66A8DDCE552E552E552A4
:10074000E552890EE66E220EE66E020EE66EE66A4F
:1007500081DCE552E552E552E5527E0EE66E220E50
:10076000E66E030EE66EE66A75DCE552E552E5528A
:10077000E5526C0EE66E220EE66E040EE66EE66A3A
:1007800069DCE552E552E552E55299D70300120EB5
:10079000E15C02E2E16AE552E16EE552E7CFD9FFA2
:1007A0001200A6D8DCEC0AF007C0E2F008C0E3F0C3
:1007B00009C0E4F00AC0E5F01200FB0EDBCF23F025
:1007C000FC0EDBCF24F0256A23C0E6FF24C0E6FF41
:1007D00025C0E6FFBDD0246E256A23C0E6FFE66E85
:1007E00025C0E6FF1200FB0EDBCFE6FFFC0EDBCFE1
:1007F000E6FFA7EC13F0E552E552120032EC14F0DC
:1008000000091200FD0FE96EFF0EDA20EA6E1200F9
:10081000E66EE66A64DCE552E552E552E552120006
:10082000E16E70D0D9CFE6FFE1CFD9FF1200050EFF
:10083000E66E010EE66E6AD8F0EC0FF0E552E55276
:10084000E552E55263D8030E120060D87AD886EFDD
:1008500004F0FD0EDBCFE6FFFE0EDBCFE6FF12005D
:10086000E66E8EEC12F0E5521200DB51E66EE66A9F
:10087000E8C0E6FFE9C0E6FFE0C0E6FFE1C0E6FF52
:100880001200DECF23F0DDCF24F094EF04F0E66E0B
:10089000E66A35EC12F0E552E5521200E66E5AECCB
:1008A00014F0E5521200FD0EDBCFE9FFFE0EDBCFA8
:1008B000EAFFD890E936EA361200E66E1DEC13F036
:1008C000E5521200E66A8EEC12F0E5521200E66E76
:1008D000E2EC0DF0E5521200D950140FE66E000E56
:1008E000DA20E66E1200F20E236E220E74DF30D094
:1008F0000F6EE2C007F0E3C008F0E4C009F0E5C005
:100900000AF01200E552E7CFD9FF1200D9CFE6FF77
:10091000DACFE6FF120086DFE15074DF010EEE1839
:100920001200D95002EF04F023C0F3FF24C0F4FFFB
:10093000020EE15C120076DF020EE126DE6ADD6A5D
:10094000120044EC10F0266E070EE15E26501200F5
:0C09500064EC12F0E552E552E552120092
:04095C0001008429E9
:0A0960000000800000006C000000A1
:06096A00F1EC09F0FB0EA8
:10097000DBCFF3FFDB06F35000090AE03FEC0AF09F
:10098000FA0EAAEC0AF0F3E1241CF1E1010E01D009
:10099000000E20EF0AF0F1EC09F03B0EE12402E337
:1009A000E168E652E16E010EDB6A020EDB6AF90EC7
:1009B000DBCFF6FFFA0EDBCFF7FFFB0EDBCFF8FF46
:1009C0000800F550DF6EDF5002E144EF09F0250E1C
:1009D000DF5C02E037EF09F0030EDB6A040EDB6A2E
:1009E000050EDB6A060EDB6A070EDB6A59EC09F0BE
:1009F0002D0EDF5C0CE02B0EDF5C09E0200EDF5CCF
:100A000006E0230EDF5C03E0300EDF5C1AE1DF500E
:100A1000300A14E0130A0FE0030A0AE00B0A05E0AB
:100A2000060AE4E1030EDB80E1D7030EDB82DED7AA
:100A3000030EDB84DBD7030EDB86D8D7030EDB88FF
:100A4000D5D72A0EDF5C1BE155EC09F0A3EC09F0C9
:100A500010E0030EDB8008680968130EDBCF0DF091
:100A6000140EDBCF0EF032EC0CF0040E06C0DBFFF0
:100A700003D0130E8CEC09F059EC09F00BD0090EE1
:100A8000DB6AFAEC09F003E06EEC0AF0FAD7090E23
:100A90008CEC09F0030EDBB0DB982E0EDF5C1BE163
:100AA00059EC09F02A0EDF5C0BE155EC09F0A3ECE0
:100AB00009F003E1130EDEEC09F059EC09F00BD05C
:100AC000090EDB6AFAEC09F003E06EEC0AF0FAD7E3
:100AD000090EDEEC09F0680EDF5C07E159EC09F065
:100AE000680EDF5C1DE1030E18D0740EDF5C17E0AA
:100AF0007A0EDF5C14E0480EDF5C06E0540EDF5C2B
:100B000003E05A0EDF5C02E1020E07D06C0EDF5CE0
:100B100003E06A0EDF5C04E1010E31EC0AF0C9DB90
:100B2000DF506E0A01E17FD31E0A01E192D1200A53
:100B300001E18FD13F0A01E149D11A0A01E146D111
:100B40000D0A01E143D1200A01E140D13A0A01E155
:100B50003DD1200A01E13AD1260A01E135D10D0A41
:100B600001E132D11A0A01E1D9D0200A4AE0300A63
:100B70001FE0460A0EE0250A01E083D3D950F90FA1
:100B8000E96EFF0EDA20EA6E010EEE5E000EEE5AFE
:100B9000EE5A3FEC0AF0250EE66E95DB03E1241CCD
:100BA00001E169D33BEC0AF001E26BD3DB2A69D3A4
:100BB000080EDB6A040EDB50010806E2040EDB04BB
:100BC00003EC0AF0DB508BDB080EDB5009E0030E70
:100BD000DB50010B05E172DB01E04DD3080EDB6A4F
:100BE00064DBEFCFDFFFB3EC0AF003E1241C01E18B
:100BF00042D33BEC0AF001E3DB2A60DB01E141D3A5
:100C00003AD3070EDB5002080FE17FEC0AF0030E27
:100C100046EC0AF00E0EEECFDBFF0F0EEECFDBFF41
:100C2000100EEECFDBFF20D0F70EDBCF26F0F80E54
:100C3000DBCF27F0020E265E000E275AF70E26C0E5
:100C4000DBFFF80E27C0DBFF26C0E9FF27C0EAFF65
:100C500036EC0AF0256A0E0E23C0DBFF0F0E24C00F
:100C6000DBFF100E25C0DBFF0E0EDBCFE6FF0F0E05
:100C7000DBCFE6FF100EDBCFE6FF1FEC10F0E552F6
:100C8000E552E552130E07C0DBFF140E08C0DBFF70
:100C9000060EDB5005E0130E7AEC0AF001E26ADB87
:100CA0009EEC0AF002E2130E37DB61EC0AF006E07C
:100CB000040E7AEC0AF002E2050E2EDB030EDBB026
:100CC00005D0FCDA01E0D7D2080EDB6A090EDB6A38
:100CD0000E0EDBCFF6FF0F0EDBCFF7FF100EDBCFD4
:100CE000F8FF0800F550DF6EDF5014E0A4EC0AF0C6
:100CF00011E2B3EC0AF003E1241C01E1BCD2BBDB3E
:100D000001E3DB2A090EDB2AD9500E0FE96E000E33
:100D1000CBDBE7D7D3DA01E1B4D2ADD2C6DA110E1C
:100D2000EECFDBFF120EEDCFDBFF110EDBCFE6FFC8
:100D3000120EDBCFE6FF11EC10F0E552E552130E78
:100D4000F3CFDBFF140EF4CFDBFF060EDB5004E025
:100D5000130ED0DB01E20EDB9EEC0AF002E2130E72
:100D6000DBDAAFDB05E0040EC5DB02E2050ED4DA08
:100D7000030EDBB005D0A2DA01E07DD2080EDB6AFB
:100D8000090EDB6A110EDBCFE9FF120EDBCFEAFFA3
:100D9000EFCFDFFFDF5014E0D7DB12E2E4DB03E14B
:100DA000241C01E168D267DB01E3DB2A090EDB2AA0
:100DB000110EDB2ADBCFE9FF120EE8E3DB2AE6D7D0
:100DC0007DDA01E15ED257D2030EDB8E070EDB0423
:100DD00010E195DB040E5ADB0A0EEECFDBFF0B0EA3
:100DE000EECFDBFF0C0EEECFDBFF0D0EEECFDBFF09
:100DF0006CD0070EDB5003082CE1030EDBAE0DD0E8
:100E0000B2DA020E76DAEFCF23F0246A256A266A78
:100E100023AE39D02468256835D0F70EDBCF24F017
:100E2000F80EDBCF25F0020E245E000E255AF70ED9
:100E300024C0DBFFF80E25C0DBFF24C0E9FF25C07E
:100E4000EAFFEFCF23F00A0E23C0DBFF0B0EDB6AB5
:100E500038D0070EDB50020809E1030EDBAE04D0E8
:100E600059DB25AE10D00ED055DB0DD0030EDBAE16
:100E700012D079DA020E3DDAF9DA256A266A24AE52
:100E800002D025682668E2DA0C0E25C0DBFF0D0EC5
:100E900026C0DBFF1AD0F70EDBCF25F0F80EDBCF34
:100EA00026F0020E255E000E265AF70E25C0DBFF47
:100EB000F80E26C0DBFF25C0E9FF26C0EAFFD6DA20
:100EC000C5DA0C0EDB6A0D0EDB6A060EDB5005E19F
:100ED000010EF36E050EF3CFDBFF150EDB6A160E67
:100EE000DB6AD950370F236E000EDA20246E390EDC
:100EF00023C0DBFF3A0E24C0DBFF380EDB6A080E8E
:100F0000DB6A0A0EAEDADF50780A12E0200A10E03F
:100F1000280A0CE0200A0AE03F0A06E00D0A02E077
:100F2000200A08E1020E05D0080E03D0080EDF26C5
:100F3000100E97DA030EDBBE02D0DB92DB94DB509F
:100F4000800B24E08ADAD890030EEB50000A08E602
:100F5000000EEE5C000EEE58000EEE58000EEE583D
:100F600015E213DA0B680C680D680E68FDEC11F0E1
:100F70000A0E02C0DBFF0B0E03C0DBFF0C0E04C029
:100F8000DBFF0D0E05C0DBFF2D0E08D0030EDBA22C
:100F900002D02B0E03D0DBA408D0200EF36E170E68
:100FA000F3CFDBFF150EDB2A02D0170EDB6A050E2E
:100FB000DB5003E1B7D901E189D05E0E236E290E23
:100FC000246E000E256E070EDBCF26F0276A286AF6
:100FD000296A26C00BF027C00CF028C00DF029C0EC
:100FE0000EF0D3D9D6EC12F023500224F36E245025
:100FF0000320F46E25500420F86EF4CFF7FFF3CFF2
:10100000F6FF0800090EF5CFDBFF580EDF5C0FE19D
:10101000610EF36E090E7BD90AE3200E236E090ED2
:10102000DBCFE7FF2350E75E090EE7CFDBFF070EBC
:10103000DBCF23F0246A256A266A0FDA23C00BF07F
:1010400024C00CF025C00DF026C00EF0EECF06F047
:10105000EECF07F0EECF08F0EFCF09F0D6EC12F0AC
:1010600009C0EDFF08C0EDFF07C0EDFF06C0EFFFB0
:10107000390EDBCFE9FFDB063A0EDBCFEAFF01E2F8
:10108000DB06090EDBCFEFFF150EDB2A4BD995E10E
:10109000030EDBA61DD06F0EDF5C06E1C1D918E39D
:1010A000150EDB285BDA14D0780EDF5C09E0580EF1
:1010B000DF5C06E0620EDF5C03E0420EDF5C08E10D
:1010C000020EF36E160EF3CFDBFF02D0150EDB6AB5
:1010D000030EDB50100B0EE0040EDBCF23F0050EE9
:1010E000DB50D880235406E2060EDB5003E1040EE9
:1010F000DB5034DA95D90AE2050EDBCFE7FF150E97
:10110000DB50E75E050EE7CFDBFF02D0050EDB6AA2
:10111000040EDBCF23F0160E45D9D880235414E2F9
:10112000160EDBCFE6FF150EDBCFE6FF040EDBCF9E
:10113000E6FF050EDB50E552E75CE552D880E75448
:10114000E552D880E7545FD9030EDB50010B0BE169
:10115000080EDB5008E0B2D801E08DD0080EDB505D
:10116000BED8080EDB6A170EDB5007E088D9170ED1
:10117000F1D903E1241C01E17ED0160EDB5016E00C
:101180007ED9300EE66E9FD802E1241C74E077D938
:10119000DFCFE6FF80EC11F0E552E552E552F4CFE7
:1011A00024F00001F31C02E1241C65E0050EDBCFF6
:1011B00023F0160EDB50D880235409E2050EDBCF56
:1011C000E7FF160EDB50E75E050EE7CFDBFF300EC4
:1011D000E66E050ECBD94FE1390EDB2ADBCFE9FFF6
:1011E0003A0E01E3DB2ADBCFEAFF090EEFCFDBFF8C
:1011F000DB500EE044D9090EADD902E1241C3BE0DE
:10120000390EDB2ADBCFE9FF3A0EEDE3DB2AEBD721
:1012100055D831E1160EDBCFE6FF080EC3D8E552F4
:10122000E7245DD82ED0070EDB50030A1CE0010A2C
:1012300014E0030A07E07BD9DBCFEEFF020EDBCF21
:10124000EDFF1FD0F5D8286A26AE02D0276828689F
:101250002CD8BCD828C0EEFF14D0EAD826BE276808
:1012600024D8B4D80ED063D9DBCFEFFF0AD07BD916
:1012700005E1241C03E1F368F46810D0FCD801E315
:10128000DB2A79D9E0EF04F0010EDBCF23F0020E68
:10129000DBCF24F023C0F3FF24C0F4FF3B0EE15C5E
:1012A00002E2E16AE552E16ECBD029D9020E46EFA7
:1012B0000AF061D90800F550DF6E1200200EE66ECC
:1012C000080EB6EF0AF080EC11F0E552E552E55257
:1012D000F3CF23F0F4CF24F00001F31C1200236EAF
:1012E000246AD950010F4DD92350EE262450ED2207
:1012F0001200275E000E285AF70E27C0DBFFF80EFB
:1013000028C0DBFF27C0E9FF28C0EAFF1200DBCFBF
:10131000F4FFF350F45C1200DB50E76E040EE7CFED
:10132000DBFF12000A0EDBCF23F00B0EDBCF24F025
:101330000C0EDBCF25F00D0EDBCF26F02350241052
:10134000251026101200130EEECFDBFF140EEDCF8A
:10135000DBFF130EDBCF23F0140EDBCF24F00001F4
:10136000800E24141200F70EDBCF27F0F80EDBCF2F
:1013700028F01200050EDB50E66ED950130F01D98C
:10138000E552E750EE6EED6A12000A0EDBCF06F072
:101390000B0EDBCF07F00C0EDBCF08F00D0EDBCF12
:1013A00009F01200DBCFE6FF150EDBCFE6FF050EDE
:1013B000DB50E552E724E552E7241200DB50CED89B
:1013C000010EF36E060EF3CFDBFF1200EE50EFCFEF
:1013D000EAFFE96E25C0EEFF26C0EEFF27C0EEFF54
:1013E0001200D9CFE6FFDACFE6FFE1CFD9FFE2CF97
:1013F000DAFF1200DFCFE6FFE66A48EC14F0E552B0
:10140000E552F3501200E76E080EE7CFDBFF120043
:10141000EECF23F0EECF24F0EFCF25F0266A1200B6
:10142000050EDBCF23F0150EDB50D88023541200BD
:10143000010EDBCF25F0020EDBCF26F0276A12006B
:10144000E552E5CFDAFFE7CFD9FF12000A0E23C03D
:10145000DBFF0B0E24C0DBFF1200D9500A0FC1EFD7
:101460000AF0F36E070EF3CFDBFF1200EECF23F08E
:10147000EFCF24F01200010EDB2A020E1200FC0E48
:10148000DBCFE6FFFD0EDBCFE6FF1200235E000E92
:10149000245AF70E23C0DBFFF80E24C0DBFF23C065
:1014A000E9FF24C0EAFF1200DA20EA6EEF2AEECF4D
:1014B000F6FF000EEF22EECFF7FFEF22EECFF8FFA0
:1014C0001200040EDBCFE6FF130EDB50E552E75CA3
:1014D0009ADFDB5004DF060EDB501200090EDB50F2
:1014E0000A0DF350DF24D00FE76E090EE7CFDBFFC4
:1014F00059EF09F0DB50F36E050E87EF09F0F70E98
:10150000DBCF23F0F80EDBCF24F01200DFCFE6FFB5
:1015100063EF09F028DF030EECDE08EF0AF0B5EC0C
:1015200004F0E552E552E552E55200091200BDDE35
:10153000EE50EFCFEAFFE96E010E1200130EDB5002
:10154000F36E040E87EF09F0040EDB50F36E090E04
:1015500087EF09F0DBCFE6FF63EF09F0E76E050EDA
:10156000E7CFDBFF12008BDF86EF0AF0DBCFE6FF71
:1015700086DF8FEF0AF0D950F90FE96EFF0E54EFB6
:0C1580000AF0E96E000EDA20EA6E12009C
:04158C00019E08D0E4
:10159000019E09AE05D0086C091EE86A0922018E79
:1015A00009C003F008C002F0136A126A8E0E046EBE
:1015B000056A51EF0DF00F7E016A8DEC0DF0A5EC80
:1015C0000DF001B635EF0DF001A20AD001AA03D04B
:1015D00001BE35EF0DF001A441EF0DF03EEF0DF02F
:1015E00001AA05D001AC41EF0DF03EEF0DF001A0D6
:1015F0000AD001A808D001BE04D001A402D04AEF4D
:101600000DF04EEF0DF0126A056A0F500A5C116E74
:1016100010E307C013F008C002F009C003F00AC0CD
:1016200010F00CC007F00DC008F00EC009F0013A30
:1016300009D00CC013F00DC002F00EC003F00FC0B3
:1016400010F0116C019E01BC018E10C004F001B0BD
:101650007DEF0DF01A0E11607DEF0DF0046A0A6A3D
:1016600001A408D0076C081E091E0A1EE86A082299
:1016700009220A2201AC08D0136C021E031E041EAC
:10168000E86A022203220422066A115207E00A34A1
:101690000932083207320632112EF9D707501326C5
:1016A00008500222095003220A50042206C012F0F8
:1016B000019E04AE0BD0126C131E021E031E041EEC
:1016C000E86A1322022203220422018E04A006D01B
:1016D000D8800332023213321232102A10C004F0C2
:1016E00051EF0DF0016A8DEC0DF0A5EC0DF001B697
:1016F00035EF0DF001A205D001BA35EF0DF03CEF4A
:101700000DF001BA48EF0DF001A005D001B835EF9A
:101710000DF048EF0DF001B83CEF0DF0056A7F0EBB
:101720000A24046EE86A05220F50045EE86A055A2E
:101730001A0E106E0A6A126A136A026A036A0C5061
:10174000075E0D50085A0E50095A000E0A5A09E752
:101750000C5007260D5008220E500922000E0A22B6
:1017600001D0128AD8900736083609360A36D89042
:101770001236133602360336102EE1D70950081000
:101780000710D8A4128A51EF0DF0016A8DEC0DF00C
:10179000A5EC0DF001B635EF0DF001A205D001B8B2
:1017A00035EF0DF03CEF0DF001AA05D001B035EF9B
:1017B0000DF03CEF0DF001B002D001A802D048EFCF
:1017C0000DF0056A0F500A24046EE86A05227E0EA9
:1017D000045EE86A055A126A136A026A036A0E50C6
:1017E0000902F4CF03F0F3CF02F00D500902F350D9
:1017F0001326F4500222000E03220E500802F3506A
:101800001326F4500222000E03220C500902F3505A
:101810001226F4501322000E022203220D50080259
:10182000F3501226F4501322000E022203220E500F
:101830000702F3501226F4501322000E0222032254
:101840000C500802F4501226000E1322022203222A
:101850000D500702F4501226000E1322022203221A
:1018600051EF0DF009C013F008C012F008500D023E
:10187000F4CF07F0F3CF06F009500E02F4CF09F0D1
:10188000F3CF08F00D02F3500726F4500822E86A5F
:10189000092212500E02F3500726F4500822E86A7B
:1018A00009220EAE58EF0CF01250085E1350095A80
:1018B00013AE000C0D50085E0E50095A000C09C002
:1018C00013F008C012F007C011F007500C02F4CF5B
:1018D00005F0F3CF04F008500D02F4CF07F0F3CF7A
:1018E00006F00C02F3500526F4500622E86A07229F
:1018F00011500D02F3500526F4500622E86A072223
:1019000009500C02F3500626F450072209500D022C
:10191000086AE86A0822F3500726F450082211509A
:101920000E02F3500626F4500722096AE86A0822DC
:10193000092212500E02F3500726F4500822E86ADA
:10194000092213500E02F3500826F4500922000C0D
:10195000016A8DEC0DF001B6B2EF0CF001A20ED0D1
:1019600001B405D07F0E096EFF0E086E1FD0800EE9
:10197000096E086A1BD0096A086A18D001B0FBD743
:101980008F0E0A60EDD77E0E0A64F5D78E0E0A5CC4
:1019900005E0D890093208320A2AF8D701A406D007
:1019A000086C091EE86A092209AEE5D71200E0ECCE
:1019B0000CF001B6000C01B0000C01B4000C010CDD
:1019C000016A8DEC0DF0A5EC0DF001B6120001AE30
:1019D00008D001A004D001A802D00180120001901B
:1019E00012000F500A5C0BE10E50095C08E10D502B
:1019F000085C05E10C50075C02E101801200D8A0F0
:101A000002D0018E10D00A500FC00AF00F6E09509C
:101A10000EC009F00E6E08500DC008F00D6E075094
:101A20000CC007F00C6E0F500A5C10E0FF0F09E0CD
:101A3000019001B403D001AE0184120001AE019403
:101A400012000F2AD8900E320D320C320C50075E65
:101A50000D50085A0E50095A09BEEAD7D8900736D9
:101A6000083609360A2EF8D7C8D77F0E0A6EFF0E41
:101A7000096E086E076E12007F0E01BEFF0E0A6E21
:101A800002D07F0E0A6E800E096E086A076AF3D7CD
:101A900001AE04D0800E0A6E096AF7D70A6A096A95
:101AA000F4D70350021013101210F8E005BEF0D75F
:101AB00003BE0CD004500510EBE0D890123613365C
:101AC000023603360406D8A00506F2D70550D4E145
:101AD0000428D2E012AE11D07F0E121402E113A03E
:101AE0000CD0132AE86A0222032207E3D8800332CB
:101AF00002321332042A0428BFE00450C9E013C0A4
:101B000007F002C008F00334096E04300A6E09328F
:101B10000A9E01BE0A8E3BEF0DF009360A3602E33B
:101B20000184017E06E101800A6A096A086A076A7F
:101B300012000A2803E0D88009321200D890093236
:101B400002E101821200018612000E360F3602E316
:101B5000018C017E06E101880F6A0E6A0D6A0C6A2B
:101B600012000F2803E0D8800E321200D8900E32F7
:061B7000EAE1018A120007
:0A1B760015DA020EE126DE6ADD6AD0
:101B8000938A8A9A939A300EFED9938A180EFBD9BB
:101B90008150200B200A01E0010E236E246A23BE2F
:101BA000246823C0DEFF24C0DDFFDF50236E020E59
:101BB000E15C02E2E16AE552E16E2350E552E7CFD3
:101BC000D9FF1200EED9E652DF6ADFCF23F0080E0C
:101BD000E76E2318E8AE02D0E73402D0E750235C6A
:101BE00019E28A9A939A010ECED9FE0EDB50010BB0
:101BF000E8B0938AE8A0939A050EC5D9938A020E9D
:101C0000C2D9FE0EDB407F0BE76EFE0EE7CFDBFF97
:101C1000DF2ADBD7E552E552E7CFD9FF1200D9CF53
:101C2000E6FFE1CFD9FF020EE126DF6A010EDB6A93
:101C3000010EDBCF23F0080EE76E2318E8AE02D0CA
:101C4000E73402D0E750235C24E28A9A939A00009A
:101C50000000938A00000000000000000000000067
:101C6000000000008150200B01E0010EF36E010E18
:101C7000DB5004E0D890F336E806FCE1F350DF10C7
:101C8000DF6E050EE66EA4EC14F0E552010EDB2AC1
:101C9000CFD7DF5000D0236E020EE15C02E2E16A92
:101CA000E552E16E2350E552E7CFD9FF1200DACFBB
:101CB000E4FFE2CFDAFFE9CFE4FFEACFE4FFF6CFBB
:101CC000E4FFF7CFE4FFF5CFE4FFF3CFE4FFF4CF79
:101CD000E4FFFACFE4FF00EE00F0140EE80403E3A3
:101CE000EECFE4FFFBD700EE23F0070EE80403E39A
:101CF000EECFE4FFFBD7E65254D9040EE126DE6AAC
:101D0000DE6ADE6ADD6ADD52DD52F2A41DD0010E0C
:101D10000001B925B96F000EBA21BA6F0A0EB919C0
:101D20000AE1BA5108E1BBEC14F0010E0001BD6FED
:101D3000BE6BF29409D0F294DC0EE66E0B0EE66EEA
:101D4000C8EC13F0E552E552F2A209D08982010EE7
:101D50000001BF25BF6F000EC021C06FF2929EA090
:101D600005D09E900001C92B000ECA239EA4D1D09D
:101D700089809E940001C551C6110AE1CF51D0114E
:101D80000FE140EC13F0F3CFC1F0F4CFC2F00ED06E
:101D9000010EC5190BE1C65109E1CF51D01106E181
:101DA00040EC13F0F3CFC3F0F4CFC4F00001C52B27
:101DB000000EC623010ED880C555000EC65507E398
:101DC000010ECF1901E0A5D0D05101E0A2D0010E43
:101DD000CF6FD06BC9C01AF0CAC01BF01C6A0C6868
:101DE0000D680E6AC9C007F0CAC008F01CC009F02F
:101DF0005FEC0CF004C01AF005C01BF006C01CF02C
:101E0000C3C01DF0C4C01EF01F6A04501D24176E0D
:101E100005501E20186E06501F20196EC1C020F0FC
:101E2000C2C021F0226A2050175C146E215018584D
:101E3000156E22501958166E14C0C7F015C0C8F0A0
:101E40000001D32B000ED423C3C0CDF0C4C0CEF00C
:101E5000C3C0C1F0C4C0C2F014C008F015C009F07E
:101E600085D87A0E0E6E440E0F6E72EC0BF007C022
:101E7000DEFF08C0DEFF09C0DEFF0AC0DDFFDD5265
:101E8000DD52D9CFE9FFDACFEAFFEECF14F0EECF83
:101E900015F0EECF16F0EFCF17F00C6A0D6A480E72
:101EA0000E6E420E0F6E14C007F015C008F016C07B
:101EB00009F017C00AF0D7EC0CF0010A04E10001A8
:101EC000D52B000ED6230001C56BC66B0F0ED88034
:101ED000D355000ED4551DE2D5C008F0D6C009F088
:101EE00045D8700E0E6E410E0F6E72EC0BF050D88E
:101EF0000C6A0D6AC80E0E6E420E0F6EC5EC0BF02A
:101F000047D8010E0001D16FD26BBEEC14F0B8ECD3
:101F100014F0040EE15C02E2E16AE552E16EE55282
:101F2000E7CFD9FFE55200EE29F0070EE80403E3FE
:101F3000E5CFEDFFFBD700EE13F0140EE80403E34A
:101F4000E5CFEDFFFBD7E5CFFAFFE5CFF4FFE5CF17
:101F5000F3FFE5CFF5FFE5CFF7FFE5CFF6FFE5CFE0
:101F6000EAFFE5CFE9FFE5CFDAFF1100C6EC0AF0A2
:101F700007C014F008C015F009C016F00AC017F029
:101F80000C6A0D6A1200E66EA4EC14F0E552120021
:101F900007C0D7F008C0D8F009C0D9F00AC0DAF0FD
:0C1FA0001200D9CFE6FFE1CFD9FF1200FC
:041FAC00FE0EE3CF73
:101FB000E9FFFF0EE3CFEAFFE9CFF3FFEACFF4FF3B
:101FC000FB0EE35003E1FC0EE35009E0FB0EE306D9
:101FD00002E2FC0EE306FD0EE350EE6EF1D71200B6
:101FE000D9CFE6FFDACFE6FFFA0EE3CFD9FFFB0E3B
:101FF000E3CFDAFFFC0EE3CFE9FFFD0EE3CFEAFF0C
:10200000E9CFF3FFEACFF4FFDECFEFFFEE66FCD7B8
:10201000FF0EE3CFDAFFE552FF0EE3CFD9FFE55223
:102020001200FE0EE3CFE9FFFF0EE3CFEAFFF36AF3
:10203000F46AEE5203E0F34AF42AFBD71200FF0ED3
:10204000E3CFF8FFE552FF0EE3CFF7FFE552FF0EB7
:10205000E3CFF6FFE552E66AE66AE66A0900F55262
:1020600009E0FD0EE32A05E1FE0EE32A02E1FF0E80
:10207000E32AF4D7FD0EE3CF07F0FE0EE3CF08F01E
:08208000FF0EE3CF09F012008E
:08208800D9CFE6FFDACFE6FF35
:10209000E1CFD9FFE2CFDAFFE652E652E652E6524E
:1020A000D950F90F236EFF0EDA20246E020E23C0E2
:1020B000DBFF030E24C0DBFF020EDBCFE6FF030EC7
:1020C000DBCFE6FFF90EDBCFE6FFFA0EDBCFE6FF54
:1020D000FB0EDBCFE6FFD950FC0FE66EFF0EDA20D9
:1020E000E66ECBEC04F0236E070EE15C02E2E16ADF
:1020F000E552E16E2350F3CFDEFFF4CFDDFFFC0E9F
:10210000DBCFE9FFFD0EDBCFEAFFEF6ADECF23F086
:10211000DDCF24F023C0F3FF24C0F4FF040EE15C04
:1021200002E2E16AE552E16EE552E5CFDAFFE7CF80
:04213000D9FF1200C1
:0C2134005C0EF66E090EF76E000EF86EE1
:1021400000010900F550F16F0900F550F26F03E14D
:10215000F16701D03DD00900F550EC6F0900F55052
:10216000ED6F0900F550EE6F09000900F550E96EBA
:102170000900F550EA6E090009000900F550EF6FFB
:102180000900F550F06F09000900F6CFF3F0F7CF22
:10219000F4F0F8CFF5F0ECC0F6FFEDC0F7FFEEC0BD
:1021A000F8FF0001EF5302E1F05307E00900F5509A
:1021B000EE6EEF07F8E2F007F9D7F3C0F6FFF4C0D0
:1021C000F7FFF5C0F8FF0001F107000EF25BBFD783
:0221D0001200FB
:0E21D200D9CFE6FFE1CFD9FF0F0E8316951689
:1021E0009594959295908C948C928C900DEC00F037
:1021F000300E33D8050EE66E1BEC14F0E552300EAF
:102200002CD8010EE66E1BEC14F0E552320E25D8E8
:1022100029D8FEE127D8FEE1FE0EDBCFE6FF1DEC5C
:1022200013F0E5521FD8FEE1080E17D81BD8FEE1C7
:102230000F0E13D817D8FEE1010E0FD813D8FEE108
:10224000130E0BD80FD8FEE1800EE66E8EEC12F066
:10225000E552E552E7CFD9FF1200E66E1DEC13F010
:0C226000E552120032EC14F000091200EC
:04226C00422848526A
:10227000292C4328485256292C45285429005361BB
:10228000766520422C432C450053746172742D41B5
:10229000004D757465782D370054656D703A202DAA
:1022A00025642E253033642563430054656D703AF0
:1022B000202B25642E2530336425634300545F733F
:1022C0006176202564004852563A2025642500484E
:1022D0005256202A3A202564250048523A20256487
:1022E0002062706D004852202A3A202564206270D6
:1022F0006D004552524F523A206C696E65202300A2
:10230000D9CFE6FFDACFE6FFE1CFD9FFE2CFDAFFA0
:10231000FB0EDBCF23F0FC0EDBCF24F00001800EA0
:1023200024141AE1FB0EDBCFE9FFFC0EDBCFEAFF42
:10233000EECFF3FFEDCFF4FFEE2A000EEF22F3CF46
:10234000E9FFF4CFEAFFFD0EDBCFEFFFEF50246A89
:10235000F36E24C0F4FF10D0FB0EDB50FE0806E144
:10236000FD0EDBCFE6FF88EC14F005D0FD0EDBCFD1
:10237000E6FF03EC00F0E552E552E5CFDAFFE7CFE8
:04238000D9FF12006F
:0C238400D9CFE6FFDACFE6FFE1CFD9FFAA
:10239000E2CFDAFFE652E652E652E652F8CF02F01A
:1023A000F6CF03F00C0EBA6E050EF66EF76A300E1D
:1023B000F86E0800F550010B03E0010EDB6802D057
:1023C000010EDB6A010EDB5002E0949201D093967D
:1023D000CA94FD0EDB50CB6ECA8402C0F8FF03C066
:1023E000F6FF040EE15C02E2E16AE552E16EE552BD
:0A23F000E5CFDAFFE7CFD9FF1200B6
:0623FA0006500B02F3CFB8
:1024000002F0F4CF03F00C02F3500326000EF42088
:10241000046E06500D02F3500426000EF420056EE3
:1024200006500E02F350052607500B02F350032608
:10243000F4500422000E052207500C02F35004262B
:10244000F450052207500D02F350052608500B02E8
:10245000F3500426F450052208500C02F3500526D0
:0A24600009500B02F350052612008C
:06246A00D9CFE6FFDACF36
:10247000E6FFE1CFD9FFE2CFDAFFE652E652FC0EEB
:10248000DBCF23F0FD0EDBCF24F0060ED8902336F1
:102490002436E804FBE123C0DEFF24C0DDFF010E8B
:1024A000DB50BB6EDF50E840E8403F0B300B236E43
:1024B000CF0EBA142310BA6EE552E552E552E5CFBD
:0824C000DAFFE7CFD9FF12009B
:0824C800D9CFE6FFE1CFD9FFF7
:1024D00019D814E032EC14F00009FCE113D8E66ED0
:1024E000FAEC12F0E552D950FC0FE96EFF0EDA203B
:1024F000EA6EEE2A000EEE22EE22EAD7E552E7CF90
:10250000D9FF1200FC0EDBCFF6FFFD0EDBCFF7FF8D
:0C251000FE0EDBCFF8FF0800F5501200B3
:04251C00D9CFE6FF2E
:10252000E1CFD9FF0F0E95168316FE0EDB50800902
:10253000F00B83128C948C920ED80F0E8316FE0E25
:10254000DB38F00BF00B831206D8F00E9512E55233
:10255000E7CFD9FF120007EC00F08C8007EC00F009
:042560008C90120049
:0C256400D9CFE6FFE1CFD9FF0F0E95168E
:102570008316FE0EDB504009F00B83128C948C9274
:102580000ED80F0E8316FE0EDB38F00BF00B831205
:1025900006D8F00E9512E552E7CFD9FF120007ECEE
:0C25A00000F08C8007EC00F08C90120022
:0425AC00056A046A4E
:1025B000036A026A200EE76ED890063607360836A0
:1025C000093602360336043605360B50025C0C50D1
:1025D00003580D5004580E50055809E30B50025E85
:1025E0000C50035A0D50045A0E50055A062AE72E75
:0425F000E4D712001A
:0C25F400D9CFE6FFE1CFD9FF0F0E9516FE
:102600008316FE0EDB50F00B83128C828C940ED856
:102610000F0E8316FE0EDB38F00BF00B831206D87C
:10262000F00E9512E552E7CFD9FF120007EC00F04B
:0A2630008C8007EC00F08C90120083
:06263A00D9CFE6FFE1CF5D
:10264000D9FF0F0E95168316FE0EDB50F00B83128A
:102650008C948C920ED80F0E8316FE0EDB38F00B86
:10266000F00B831206D8F00E9512E552E7CFD9FF92
:10267000120007EC00F08C8007EC00F08C90120048
:10268000D9CFE6FFDACFE6FFE1CFD9FFE2CFDAFF1D
:10269000E652E6520001F6919EB4F681BE50DF6E1E
:1026A000010EBFCFDBFFDECF23F0DDCF24F023C050
:1026B000F3FF24C0F4FFE552E552E552E5CFDAFF1F
:0626C000E7CFD9FF120074
:0A26C600D9CFE6FFE1CFD9FFE652BD
:1026D0008C848C8207EC00F08C8007EC00F0F00E0C
:1026E0008314DF6E8C9007EC00F08C8007EC00F018
:1026F00083380F0B0F0BDF128C908C928C94DF5071
:0A270000E552E552E7CFD9FF1200C1
:06270A00D9CFE6FFE1CF8C
:10271000D9FFE6528C848C9207EC00F08C8007EC99
:1027200000F0F00E8314DF6E8C9007EC00F08C80CC
:1027300007EC00F083380F0B0F0BDF128C908C949A
:0E2740007F0EDF14E552E552E7CFD9FF1200FD
:02274E00D9CFE1
:10275000E6FFE1CFD9FF14D80FE032EC14F0000906
:10276000FCE10ED8E66EFAEC12F0E552FD0EDB2A23
:10277000FE0EF1E3DB2AEFD7E552E7CFD9FF1200D7
:10278000FD0EDBCFE9FFFE0EDBCFEAFFEF501200BC
:10279000D9CFE6FFDACFE6FFE1CFD9FFE2CFDAFF0C
:1027A000E652E652FC0EDBCFDEFFDBCFDDFF010E93
:1027B000DB50D76EDF50D66EE552E552E552E5CFDD
:0827C000DAFFE7CFD9FF120098
:0827C800D9CFE6FFDACFE6FFEE
:1027D000E1CFD9FFE2CFDAFFFD0EDB507F0BD56EE4
:1027E000D76AD66AF294FD0EDBAE02D0F28A01D02F
:1027F000F29AD58EE552E5CFDAFFE7CFD9FF120086
:10280000D9CFE6FFDACFE6FFE1CFD9FFE2CFDAFF9B
:10281000FD0EDB50FB0BCA6ECC6A9E92FD0EDBAE4A
:1028200002D09D8201D09D92CA84E552E5CFDAFFA5
:06283000E7CFD9FF120002
:0A283600FF0EE3502B6EEF0E01D0F1
:10284000F30EE76EE72E22EF14F00C0E2A6EE76A05
:10285000E72E28EF14F02A2E27EF14F02B2E20EF6E
:0428600014F012005E
:0C2864008C848C9207EC00F08C8007EC58
:1028700000F083AE02D003D8010C01D8000C8C907C
:1028800007EC00F08C8007EC00F08C908C94120028
:10289000F36AF46AFF0EE124E96EFF0EE220EA6EAD
:1028A000ED6607D02F0EEF6404D03A0EEF6001D032
:0428B000F32A1200F5
:0C28B400FF0EE3502B6E480E01D04C0EBE
:1028C000E76EE72EFED7E76AE72EFED72B2EF7D767
:0428D00000001200F2
:0C28D400000EF36E00EE00F0060E01D8BE
:1028E0001200EA6002D0EE6AFCD7F350E9601200F1
:0428F000EE6AFCD7B9
:0C28F40015EE00F025EE00F0F86A019CE3
:102900009AEC10F0C1EC14F044EC03F0FBD7120089
:10291000FF0EE350ACBA04D0AF6AAB8EAC8A949C85
:0C292000ACA2FED7AD6EF36EF46A12009C
:04292C00FF0EE35067
:102930002B6E1B0E00D001D0200EE76EE72EFED7C7
:082940002B2EFAD700D0120083
:08294800FF0EE350E84E1200FF
:0E295000000000D000D000D0E82EFAD7120010
:02295E00303116
:0F29600032333435363738396162636465660067
:06297000CD909D901200C5
:06297600D59EF29A12004A
:04297C009D94BD6AFF
:02298000120043
:02298200120041
:0C298400FF00CC00AA00AA007F007F002A
:102990000100010001000000010001000100010030
:1029A0000300010001000100010000003132334149
:1029B000343536423738394330464544FF0000004D
:1029C0000000000000000000000000000000000007
:1029D000000000000000000000000000000000DF18
:1029E00000000000000000000000000000000000E7
:020000040030CA
:0100010022DC
:010003000EEE
:0100050000FA
:010006008178
:00000001FF
